:03000000020F4CA0
:0C0F4C00787FE4F6D8FD758138020CB700
:100CB700E4F5B0F5A07590FF120C76120EB8E4F5C6
:100CC70009C3E509940D748094805012740A2509AC
:100CD700F8E4F674182509F8E4F6050980E3E4F565
:0D0CE700097FC6120D698F17120AB980FB34
:100AB900C2B0D2B1D2B2D2B32090127FDC120EF5FD
:100AC9007F311208007FEE120EF53090FD20911251
:100AD9007FDC120EF57F321208007FEE120EF53020
:100AE90091FD2092127FDC120EF57F331208007FF0
:100AF900EE120EF53092FD2093127FDC120EF57F77
:100B0900411208007FEE120EF53093FDD2B0C2B14A
:100B1900D2B2D2B32090127FDC120EF57F341208C4
:100B2900007FEE120EF53090FD2091127FDC120E3F
:100B3900F57F351208007FEE120EF53091FD2092F7
:100B4900127FDC120EF57F361208007FEE120EF5C9
:100B59003092FD2093177FDC120EF57F42120800B8
:100B69007FEE120EF53093FD7F62120800D2B0D2EB
:100B7900B1C2B2D2B32090127FDC120EF57F3712C8
:100B890008007FEE120EF53090FD2091127FDC12E5
:100B99000EF57F381208007FEE120EF53091FD2018
:100BA90092127FDC120EF57F391208007FEE120EC9
:100BB900F53092FD2093127FDC120EF57F43120867
:100BC900007FEE120EF53093FDD2B0D2B1D2B2C28F
:100BD900B32090127FDC120EF57F2A1208007FEEF7
:100BE900120EF53090FD2091127FDC120EF57F3048
:100BF9001208007FEE120EF53091FD2092127FDC73
:100C0900120EF57F231208007FEE120EF53092FDC9
:100C19002093127FDC120EF57F441208007FEE123A
:060C29000EF53093FD22E0
:100800008F25E52564236003020985E5096043E53A
:05081000086448703D82
:10081500120C2F8F26120F0FE526B4310D7F101203
:100825000E26750852E4F517801CE5266430600332
:10083500020AB87F20120E267508580517E51764B9
:0D084500047003D2B722AD177FC6020E4D1E
:10085200E508B4431F120F0F7F30120E26E4FD7F0E
:10086200C0120CF47FC0120E26E4FD7F0F120CF4AE
:1008720075084F22E508644F7065E5096061120C46
:100882002FEF6431703A120F0F7F40120E26E4FDF3
:100892007FC0120CF47FC0120E26E4FD7F0F120CF3
:1008A200F475084EE4F509C3E509940D748094804B
:1008B200500B74182509F8E4F6050980EA020A8249
:1008C200120F0FE4FD7F0C120CF47F20120E26E4AF
:1008D200FD7FC0120CF47F50120E2675085722E5D8
:0508E20008644E7037B0
:1008E700120F0F7F60120E26E4FD7FC0120CF47FFB
:1008F700C0120E26E4F526E526C395095012741892
:100907002526F8E6FF740A2526F8A607052680E7B8
:06091700E4F50975084635
:0A091D0022E50864466003020AB8F0
:100927007526E0120D9CEF64317019120F0F7B00D2
:100937007A0079187DE0120DFBE4FD7F0C120CF4B0
:100947007F70800C120F0FE4FD7F0C120CF47FD028
:10095700120E26E4FD7FC0120CF47F80120E26755E
:10096700084AE4F509C3E509940D748094804003AF
:0E097700020AB8740A2509F8E4F6050980E7BB
:10098500E52564426006E52564627060E508644813
:100995006012E508644F600CE508644E6006E508E2
:0409A50064467048EC
:1009A900E52564427023FD7FC4120CF4E4F526E5C5
:1009B90026C395094003020AB874182526F8E6FFEC
:1009C9007D01120CF4052680E6E4FD7FC4120CF4C7
:1009D900E4F526E526C395094003020AB87D017F9F
:0809E900C8120CF4052680EB96
:0509F100E525B4441EE1
:1009F600120EB8E4F526C3E526940D748094805053
:0E0A06000B74182526F8E4F6052680EA806EAB
:100A1400E525642A703ED3E50994007480948050DF
:100A240003020AB8E50864486012E508644F600CE4
:100A3400E508644E6006E50864467078E4FD7F10BE
:100A4400120CF47D017F20120CF4E4FD7F10120CD3
:100A5400F4150922E52564437028E50864487054B8
:100A6400120F0FE4FD7F0C120CF47F90120E26E49B
:100A7400FD7FC0120CF47FA0120E26750843E4F526
:100A84000922C3E509940C748094805027E5086416
:100A9400486011E508644F600BE508644E6005E5A5
:100AA40008B446107D017FC8120CF474182509F8A7
:050AB400A62505092242
:100C2F007534E0E4F535AF34120D6974272535F8C6
:100C3F00A60705350534EF70ED1535E535650970F7
:100C4F0023F535E535C39509501774272535F8E693
:100C5F00FF74182535F8E66F60037F302205358065
:060C6F00E27F31227F301C
:010C7500225C
:100D9C00E4FF740A2FF8E660030F80F6EF65097024
:100DAC001EFFEFC395095014740A2FF8E6FE741851
:100DBC002FF8E66E60037F30220F80E67F31227FB2
:010DCC0030F6
:010DCD002203
:100EB800120F0F7FB0120E26E4FD7FC0120CF47FD4
:0F0EC800C0120E26E4FD7F0F120CF475084822AD
:100C76007F05120EF5E4FD7F33120CF47F02120E8F
:100C8600F5E4FD7F32120CF47F02120EF5E4FD7FCF
:100C960028120CF47F02120EF5E4FD7F0C120CF400
:100CA6007F01120EF5E4FD7F06120CF47F01020EA1
:010CB600F548
:100CF400ED24FF92A08FF0A2F492A4A2F592A5A2F3
:100D0400F692A6A2F792A77F01120EF5120F3AA24D
:100D1400F092A4A2F192A5A2F292A6A2F392A77FC6
:0C0D240001120EF5120F3A7F01020EF5CD
:020E26008F2714
:100E2800E4F529C3E5299410748094805016AF27FF
:100E3800120D698F28E528600B7D01120CF4052737
:040E4800052980DF19
:010E4C002283
:100F3A00D2A17F017E00120F58C2A17F017E00025A
:020F4A000F583E
:100F0F00E4FD7F01120CF47F02120EF5E4FD7F0267
:080F1F00120CF47F02020EF532
:100EF500E4FEEEC3941E74809480500DE4FDEDC3B2
:090F05009F50030D80F80E80E9F5
:010F0E0022C0
:0C0F5800EF4E6007EF1F70F81E80F522BE
:100F27007F027E00120F58D2A37F027E00120F5855
:030F3700C2A32230
:100E9800C2A3D2A27F027E00120F58D2A37F027E85
:100EA80000120F58C2A27F027E00120F58C2A3225E
:100ED700C2A37F027E00120F58C2A27F027E0012B9
:0E0EE7000F58D2A37F027E00120F58D2A22213
:100E74008FF0E4F538C3E5389408748094805011F9
:100E8400A2F792A2120F27E5F025E0F5F0053880CD
:030E9400E4D2A203
:010E97002238
:100D3000D2A2E4F5F0F538C3E538940874809480C5
:100D400050227F027E00120F58D2A37F037E001232
:100D50000F58E5F025E0F5F0A2A2E43342F0C2A37B
:080D6000053880D3C2A2AFF0F8
:010D68002268
:080F6400C2A2120F27D2A22243
:080F6C00D2A2120F27D2A3222A
:100E4D008F2D8D2E120E987FA0120E74120F64AF7F
:100E5D002D120E74120F64AF2E120E74120F641237
:070E6D000ED77F06020EF50F
:080DFB008B278A2889298D2A23
:100E0300E4F52CAB27AA28A929852C827583001227
:100E13000DCEF52BFDAF2A120E4D052A052CE52B21
:020E230070E17C
:010E250022AA
:020D69008F36C3
:100D6B00120E987FA0120E74120F64AF36120E740F
:100D7B00120F64120E987FA1120E74120F64120DD3
:100D8B00308F37120F6C120ED77F04120EF5AF3760
:010D9B002235
:100DCE00BB010CE58229F582E5833AF583E02250DA
:100DDE0006E92582F8E622BBFE06E92582F8E22224
:0D0DEE00E58229F582E5833AF583E493223E
:00000001FF
